{
  "_format": "hh-sol-artifact-1",
  "contractName": "RoundFactory",
  "sourceName": "contracts/round/RoundFactory.sol",
  "abi": [
    {
      "anonymous": false,
      "inputs": [
        {
          "indexed": false,
          "internalType": "address",
          "name": "alloSettings",
          "type": "address"
        }
      ],
      "name": "AlloSettingsUpdated",
      "type": "event"
    },
    {
      "anonymous": false,
      "inputs": [
        {
          "indexed": false,
          "internalType": "uint8",
          "name": "version",
          "type": "uint8"
        }
      ],
      "name": "Initialized",
      "type": "event"
    },
    {
      "anonymous": false,
      "inputs": [
        {
          "indexed": true,
          "internalType": "address",
          "name": "previousOwner",
          "type": "address"
        },
        {
          "indexed": true,
          "internalType": "address",
          "name": "newOwner",
          "type": "address"
        }
      ],
      "name": "OwnershipTransferred",
      "type": "event"
    },
    {
      "anonymous": false,
      "inputs": [
        {
          "indexed": true,
          "internalType": "address",
          "name": "roundAddress",
          "type": "address"
        },
        {
          "indexed": true,
          "internalType": "address",
          "name": "ownedBy",
          "type": "address"
        },
        {
          "indexed": true,
          "internalType": "address",
          "name": "roundImplementation",
          "type": "address"
        }
      ],
      "name": "RoundCreated",
      "type": "event"
    },
    {
      "anonymous": false,
      "inputs": [
        {
          "indexed": false,
          "internalType": "address",
          "name": "roundImplementation",
          "type": "address"
        }
      ],
      "name": "RoundImplementationUpdated",
      "type": "event"
    },
    {
      "inputs": [],
      "name": "VERSION",
      "outputs": [
        {
          "internalType": "string",
          "name": "",
          "type": "string"
        }
      ],
      "stateMutability": "view",
      "type": "function"
    },
    {
      "inputs": [],
      "name": "alloSettings",
      "outputs": [
        {
          "internalType": "address",
          "name": "",
          "type": "address"
        }
      ],
      "stateMutability": "view",
      "type": "function"
    },
    {
      "inputs": [
        {
          "internalType": "bytes",
          "name": "encodedParameters",
          "type": "bytes"
        },
        {
          "internalType": "address",
          "name": "ownedBy",
          "type": "address"
        }
      ],
      "name": "create",
      "outputs": [
        {
          "internalType": "address",
          "name": "",
          "type": "address"
        }
      ],
      "stateMutability": "nonpayable",
      "type": "function"
    },
    {
      "inputs": [],
      "name": "initialize",
      "outputs": [],
      "stateMutability": "nonpayable",
      "type": "function"
    },
    {
      "inputs": [],
      "name": "nonce",
      "outputs": [
        {
          "internalType": "uint256",
          "name": "",
          "type": "uint256"
        }
      ],
      "stateMutability": "view",
      "type": "function"
    },
    {
      "inputs": [],
      "name": "owner",
      "outputs": [
        {
          "internalType": "address",
          "name": "",
          "type": "address"
        }
      ],
      "stateMutability": "view",
      "type": "function"
    },
    {
      "inputs": [],
      "name": "renounceOwnership",
      "outputs": [],
      "stateMutability": "nonpayable",
      "type": "function"
    },
    {
      "inputs": [],
      "name": "roundImplementation",
      "outputs": [
        {
          "internalType": "address",
          "name": "",
          "type": "address"
        }
      ],
      "stateMutability": "view",
      "type": "function"
    },
    {
      "inputs": [
        {
          "internalType": "address",
          "name": "newOwner",
          "type": "address"
        }
      ],
      "name": "transferOwnership",
      "outputs": [],
      "stateMutability": "nonpayable",
      "type": "function"
    },
    {
      "inputs": [
        {
          "internalType": "address",
          "name": "newAlloSettings",
          "type": "address"
        }
      ],
      "name": "updateAlloSettings",
      "outputs": [],
      "stateMutability": "nonpayable",
      "type": "function"
    },
    {
      "inputs": [
        {
          "internalType": "address payable",
          "name": "newRoundImplementation",
          "type": "address"
        }
      ],
      "name": "updateRoundImplementation",
      "outputs": [],
      "stateMutability": "nonpayable",
      "type": "function"
    }
  ],
  "bytecode": "0x608060405234801561001057600080fd5b50610a11806100206000396000f3fe608060405234801561001057600080fd5b50600436106100b95760003560e01c8063a858643811610081578063be8c0b2f1161005b578063be8c0b2f1461015d578063f2fde38b14610170578063ffa1ad741461018357600080fd5b8063a858643814610120578063affed0e014610133578063bc31bca91461014a57600080fd5b80635614ea4e146100be578063715018a6146100d35780638129fc1c146100db5780638da5cb5b146100e35780639c3b68ce1461010d575b600080fd5b6100d16100cc36600461087d565b6101b4565b005b6100d1610211565b6100d1610225565b6033546001600160a01b03165b6040516001600160a01b0390911681526020015b60405180910390f35b6066546100f0906001600160a01b031681565b6065546100f0906001600160a01b031681565b61013c60675481565b604051908152602001610104565b6100f06101583660046108a1565b61033f565b6100d161016b36600461087d565b610518565b6100d161017e36600461087d565b6105c4565b6101a7604051806040016040528060058152602001640302e322e360dc1b81525081565b6040516101049190610924565b6101bc61063a565b606680546001600160a01b0319166001600160a01b0383169081179091556040519081527fa58967f5e07bd2405f0758a5019f9448cf74c83b2a4ce3bb0744f6d89a66157f906020015b60405180910390a150565b61021961063a565b6102236000610694565b565b600054610100900460ff16158080156102455750600054600160ff909116105b8061025f5750303b15801561025f575060005460ff166001145b6102c75760405162461bcd60e51b815260206004820152602e60248201527f496e697469616c697a61626c653a20636f6e747261637420697320616c72656160448201526d191e481a5b9a5d1a585b1a5e995960921b60648201526084015b60405180910390fd5b6000805460ff1916600117905580156102ea576000805461ff0019166101001790555b6102f26106e6565b6102fa610751565b801561033c576000805461ff0019169055604051600181527f7f26b83ff96e1f2b6a682f133852f6798a09c465da95921460cefb384740249890602001610206565b50565b606780546000918261035083610972565b90915550506065546001600160a01b03166103ad5760405162461bcd60e51b815260206004820152601960248201527f726f756e64496d706c656d656e746174696f6e2069732030780000000000000060448201526064016102be565b6066546001600160a01b03166104055760405162461bcd60e51b815260206004820152601260248201527f616c6c6f53657474696e6773206973203078000000000000000000000000000060448201526064016102be565b6067546040516bffffffffffffffffffffffff193360601b166020820152603481019190915260009060540160408051601f198184030181529190528051602090910120606554909150600090610465906001600160a01b0316836107c5565b6065546040519192506001600160a01b0390811691868216918416907f9ea0518c708ef5dfce96e410b66495be1d381b18199887003dd508e0cc19dc7790600090a460665460405163cce2df0360e01b81526001600160a01b038084169263cce2df03926104dc928b928b92911690600401610999565b600060405180830381600087803b1580156104f657600080fd5b505af115801561050a573d6000803e3d6000fd5b509298975050505050505050565b61052061063a565b6001600160a01b0381166105765760405162461bcd60e51b815260206004820152601960248201527f726f756e64496d706c656d656e746174696f6e2069732030780000000000000060448201526064016102be565b606580546001600160a01b0319166001600160a01b0383169081179091556040519081527f80dfd4a16b3bbb75be7e2b6efaa25fff123212f0ca69500dd77518910aec82b590602001610206565b6105cc61063a565b6001600160a01b0381166106315760405162461bcd60e51b815260206004820152602660248201527f4f776e61626c653a206e6577206f776e657220697320746865207a65726f206160448201526564647265737360d01b60648201526084016102be565b61033c81610694565b6033546001600160a01b031633146102235760405162461bcd60e51b815260206004820181905260248201527f4f776e61626c653a2063616c6c6572206973206e6f7420746865206f776e657260448201526064016102be565b603380546001600160a01b038381166001600160a01b0319831681179093556040519116919082907f8be0079c531659141344cd1fd0a4f28419497f9722a3daafe3b4186f6b6457e090600090a35050565b600054610100900460ff166102235760405162461bcd60e51b815260206004820152602b60248201527f496e697469616c697a61626c653a20636f6e7472616374206973206e6f74206960448201526a6e697469616c697a696e6760a81b60648201526084016102be565b600054610100900460ff166107bc5760405162461bcd60e51b815260206004820152602b60248201527f496e697469616c697a61626c653a20636f6e7472616374206973206e6f74206960448201526a6e697469616c697a696e6760a81b60648201526084016102be565b61022333610694565b6000763d602d80600a3d3981f3363d3d373d3d3d363d730000008360601b60e81c176000526e5af43d82803e903d91602b57fd5bf38360781b1760205281603760096000f590506001600160a01b0381166108625760405162461bcd60e51b815260206004820152601760248201527f455243313136373a2063726561746532206661696c656400000000000000000060448201526064016102be565b92915050565b6001600160a01b038116811461033c57600080fd5b60006020828403121561088f57600080fd5b813561089a81610868565b9392505050565b6000806000604084860312156108b657600080fd5b833567ffffffffffffffff808211156108ce57600080fd5b818601915086601f8301126108e257600080fd5b8135818111156108f157600080fd5b87602082850101111561090357600080fd5b6020928301955093505084013561091981610868565b809150509250925092565b600060208083528351808285015260005b8181101561095157858101830151858201604001528201610935565b506000604082860101526040601f19601f8301168501019250505092915050565b60006001820161099257634e487b7160e01b600052601160045260246000fd5b5060010190565b604081528260408201528284606083013760006060848301015260006060601f19601f86011683010190506001600160a01b038316602083015294935050505056fea2646970667358221220b23e0d3a3fcdbb91b8a05ea1209c28f0e99790bd3a6a2817cde11b36be2952c064736f6c63430008110033",
  "linkReferences": {},
  "deployedLinkReferences": {}
}